Archive member included to satisfy reference by file (symbol)

c:/st/stm32cubeide_1.6.1/stm32cubeide/plugins/com.st.stm32cube.ide.mcu.externaltools.gnu-tools-for-stm32.9-2020-q2-update.win32_1.5.0.202011040924/tools/bin/../lib/gcc/arm-none-eabi/9.3.1/../../../../arm-none-eabi/lib/thumb/v7e-m/nofp\libc_nano.a(lib_a-errno.o)
                              Src/syscalls.o (__errno)
c:/st/stm32cubeide_1.6.1/stm32cubeide/plugins/com.st.stm32cube.ide.mcu.externaltools.gnu-tools-for-stm32.9-2020-q2-update.win32_1.5.0.202011040924/tools/bin/../lib/gcc/arm-none-eabi/9.3.1/../../../../arm-none-eabi/lib/thumb/v7e-m/nofp\libc_nano.a(lib_a-exit.o)
                              c:/st/stm32cubeide_1.6.1/stm32cubeide/plugins/com.st.stm32cube.ide.mcu.externaltools.gnu-tools-for-stm32.9-2020-q2-update.win32_1.5.0.202011040924/tools/bin/../lib/gcc/arm-none-eabi/9.3.1/../../../../arm-none-eabi/lib/thumb/v7e-m/nofp/crt0.o (exit)
c:/st/stm32cubeide_1.6.1/stm32cubeide/plugins/com.st.stm32cube.ide.mcu.externaltools.gnu-tools-for-stm32.9-2020-q2-update.win32_1.5.0.202011040924/tools/bin/../lib/gcc/arm-none-eabi/9.3.1/../../../../arm-none-eabi/lib/thumb/v7e-m/nofp\libc_nano.a(lib_a-impure.o)
                              c:/st/stm32cubeide_1.6.1/stm32cubeide/plugins/com.st.stm32cube.ide.mcu.externaltools.gnu-tools-for-stm32.9-2020-q2-update.win32_1.5.0.202011040924/tools/bin/../lib/gcc/arm-none-eabi/9.3.1/../../../../arm-none-eabi/lib/thumb/v7e-m/nofp\libc_nano.a(lib_a-exit.o) (_global_impure_ptr)
c:/st/stm32cubeide_1.6.1/stm32cubeide/plugins/com.st.stm32cube.ide.mcu.externaltools.gnu-tools-for-stm32.9-2020-q2-update.win32_1.5.0.202011040924/tools/bin/../lib/gcc/arm-none-eabi/9.3.1/../../../../arm-none-eabi/lib/thumb/v7e-m/nofp\libc_nano.a(lib_a-init.o)
                              c:/st/stm32cubeide_1.6.1/stm32cubeide/plugins/com.st.stm32cube.ide.mcu.externaltools.gnu-tools-for-stm32.9-2020-q2-update.win32_1.5.0.202011040924/tools/bin/../lib/gcc/arm-none-eabi/9.3.1/../../../../arm-none-eabi/lib/thumb/v7e-m/nofp/crt0.o (__libc_init_array)
c:/st/stm32cubeide_1.6.1/stm32cubeide/plugins/com.st.stm32cube.ide.mcu.externaltools.gnu-tools-for-stm32.9-2020-q2-update.win32_1.5.0.202011040924/tools/bin/../lib/gcc/arm-none-eabi/9.3.1/../../../../arm-none-eabi/lib/thumb/v7e-m/nofp\libc_nano.a(lib_a-memset.o)
                              c:/st/stm32cubeide_1.6.1/stm32cubeide/plugins/com.st.stm32cube.ide.mcu.externaltools.gnu-tools-for-stm32.9-2020-q2-update.win32_1.5.0.202011040924/tools/bin/../lib/gcc/arm-none-eabi/9.3.1/../../../../arm-none-eabi/lib/thumb/v7e-m/nofp/crt0.o (memset)

Discarded input sections

 .text          0x0000000000000000        0x0 c:/st/stm32cubeide_1.6.1/stm32cubeide/plugins/com.st.stm32cube.ide.mcu.externaltools.gnu-tools-for-stm32.9-2020-q2-update.win32_1.5.0.202011040924/tools/bin/../lib/gcc/arm-none-eabi/9.3.1/thumb/v7e-m/nofp/crti.o
 .data          0x0000000000000000        0x0 c:/st/stm32cubeide_1.6.1/stm32cubeide/plugins/com.st.stm32cube.ide.mcu.externaltools.gnu-tools-for-stm32.9-2020-q2-update.win32_1.5.0.202011040924/tools/bin/../lib/gcc/arm-none-eabi/9.3.1/thumb/v7e-m/nofp/crti.o
 .bss           0x0000000000000000        0x0 c:/st/stm32cubeide_1.6.1/stm32cubeide/plugins/com.st.stm32cube.ide.mcu.externaltools.gnu-tools-for-stm32.9-2020-q2-update.win32_1.5.0.202011040924/tools/bin/../lib/gcc/arm-none-eabi/9.3.1/thumb/v7e-m/nofp/crti.o
 .data          0x0000000000000000        0x4 c:/st/stm32cubeide_1.6.1/stm32cubeide/plugins/com.st.stm32cube.ide.mcu.externaltools.gnu-tools-for-stm32.9-2020-q2-update.win32_1.5.0.202011040924/tools/bin/../lib/gcc/arm-none-eabi/9.3.1/thumb/v7e-m/nofp/crtbegin.o
 .text          0x0000000000000000       0x7c c:/st/stm32cubeide_1.6.1/stm32cubeide/plugins/com.st.stm32cube.ide.mcu.externaltools.gnu-tools-for-stm32.9-2020-q2-update.win32_1.5.0.202011040924/tools/bin/../lib/gcc/arm-none-eabi/9.3.1/../../../../arm-none-eabi/lib/thumb/v7e-m/nofp/crt0.o
 .data          0x0000000000000000        0x0 c:/st/stm32cubeide_1.6.1/stm32cubeide/plugins/com.st.stm32cube.ide.mcu.externaltools.gnu-tools-for-stm32.9-2020-q2-update.win32_1.5.0.202011040924/tools/bin/../lib/gcc/arm-none-eabi/9.3.1/../../../../arm-none-eabi/lib/thumb/v7e-m/nofp/crt0.o
 .bss           0x0000000000000000        0x0 c:/st/stm32cubeide_1.6.1/stm32cubeide/plugins/com.st.stm32cube.ide.mcu.externaltools.gnu-tools-for-stm32.9-2020-q2-update.win32_1.5.0.202011040924/tools/bin/../lib/gcc/arm-none-eabi/9.3.1/../../../../arm-none-eabi/lib/thumb/v7e-m/nofp/crt0.o
 .ARM.extab     0x0000000000000000        0x0 c:/st/stm32cubeide_1.6.1/stm32cubeide/plugins/com.st.stm32cube.ide.mcu.externaltools.gnu-tools-for-stm32.9-2020-q2-update.win32_1.5.0.202011040924/tools/bin/../lib/gcc/arm-none-eabi/9.3.1/../../../../arm-none-eabi/lib/thumb/v7e-m/nofp/crt0.o
 .ARM.exidx     0x0000000000000000       0x10 c:/st/stm32cubeide_1.6.1/stm32cubeide/plugins/com.st.stm32cube.ide.mcu.externaltools.gnu-tools-for-stm32.9-2020-q2-update.win32_1.5.0.202011040924/tools/bin/../lib/gcc/arm-none-eabi/9.3.1/../../../../arm-none-eabi/lib/thumb/v7e-m/nofp/crt0.o
 .ARM.attributes
                0x0000000000000000       0x1c c:/st/stm32cubeide_1.6.1/stm32cubeide/plugins/com.st.stm32cube.ide.mcu.externaltools.gnu-tools-for-stm32.9-2020-q2-update.win32_1.5.0.202011040924/tools/bin/../lib/gcc/arm-none-eabi/9.3.1/../../../../arm-none-eabi/lib/thumb/v7e-m/nofp/crt0.o
 .group         0x0000000000000000        0xc Src/Ext_Int.o
 .group         0x0000000000000000        0xc Src/Ext_Int.o
 .group         0x0000000000000000        0xc Src/Ext_Int.o
 .group         0x0000000000000000        0xc Src/Ext_Int.o
 .group         0x0000000000000000        0xc Src/Ext_Int.o
 .group         0x0000000000000000        0xc Src/Ext_Int.o
 .group         0x0000000000000000        0xc Src/Ext_Int.o
Memory Configuration

Name             Origin             Length             Attributes
RAM              0x0000000020000000 0x0000000000020000 xrw
FLASH            0x0000000008000000 0x0000000000100000 xr
*default*        0x0000000000000000 0xffffffffffffffff

Linker script and memory map

LOAD c:/st/stm32cubeide_1.6.1/stm32cubeide/plugins/com.st.stm32cube.ide.mcu.externaltools.gnu-tools-for-stm32.9-2020-q2-update.win32_1.5.0.202011040924/tools/bin/../lib/gcc/arm-none-eabi/9.3.1/thumb/v7e-m/nofp/crti.o
LOAD c:/st/stm32cubeide_1.6.1/stm32cubeide/plugins/com.st.stm32cube.ide.mcu.externaltools.gnu-tools-for-stm32.9-2020-q2-update.win32_1.5.0.202011040924/tools/bin/../lib/gcc/arm-none-eabi/9.3.1/thumb/v7e-m/nofp/crtbegin.o
LOAD c:/st/stm32cubeide_1.6.1/stm32cubeide/plugins/com.st.stm32cube.ide.mcu.externaltools.gnu-tools-for-stm32.9-2020-q2-update.win32_1.5.0.202011040924/tools/bin/../lib/gcc/arm-none-eabi/9.3.1/../../../../arm-none-eabi/lib/thumb/v7e-m/nofp/crt0.o
LOAD Src/Ext_Int.o
LOAD Src/Switch_Int.o
LOAD Src/itm.o
LOAD Src/led.o
LOAD Src/main.o
LOAD Src/syscalls.o
LOAD Src/sysmem.o
LOAD Src/system_stm32f4xx.o
LOAD Startup/startup_stm32f407vgtx.o
START GROUP
LOAD c:/st/stm32cubeide_1.6.1/stm32cubeide/plugins/com.st.stm32cube.ide.mcu.externaltools.gnu-tools-for-stm32.9-2020-q2-update.win32_1.5.0.202011040924/tools/bin/../lib/gcc/arm-none-eabi/9.3.1/../../../../arm-none-eabi/lib/thumb/v7e-m/nofp\libc_nano.a
LOAD c:/st/stm32cubeide_1.6.1/stm32cubeide/plugins/com.st.stm32cube.ide.mcu.externaltools.gnu-tools-for-stm32.9-2020-q2-update.win32_1.5.0.202011040924/tools/bin/../lib/gcc/arm-none-eabi/9.3.1/../../../../arm-none-eabi/lib/thumb/v7e-m/nofp\libm.a
END GROUP
START GROUP
LOAD c:/st/stm32cubeide_1.6.1/stm32cubeide/plugins/com.st.stm32cube.ide.mcu.externaltools.gnu-tools-for-stm32.9-2020-q2-update.win32_1.5.0.202011040924/tools/bin/../lib/gcc/arm-none-eabi/9.3.1/thumb/v7e-m/nofp\libgcc.a
LOAD c:/st/stm32cubeide_1.6.1/stm32cubeide/plugins/com.st.stm32cube.ide.mcu.externaltools.gnu-tools-for-stm32.9-2020-q2-update.win32_1.5.0.202011040924/tools/bin/../lib/gcc/arm-none-eabi/9.3.1/../../../../arm-none-eabi/lib/thumb/v7e-m/nofp\libc_nano.a
END GROUP
START GROUP
LOAD c:/st/stm32cubeide_1.6.1/stm32cubeide/plugins/com.st.stm32cube.ide.mcu.externaltools.gnu-tools-for-stm32.9-2020-q2-update.win32_1.5.0.202011040924/tools/bin/../lib/gcc/arm-none-eabi/9.3.1/thumb/v7e-m/nofp\libgcc.a
LOAD c:/st/stm32cubeide_1.6.1/stm32cubeide/plugins/com.st.stm32cube.ide.mcu.externaltools.gnu-tools-for-stm32.9-2020-q2-update.win32_1.5.0.202011040924/tools/bin/../lib/gcc/arm-none-eabi/9.3.1/../../../../arm-none-eabi/lib/thumb/v7e-m/nofp\libc_nano.a
LOAD c:/st/stm32cubeide_1.6.1/stm32cubeide/plugins/com.st.stm32cube.ide.mcu.externaltools.gnu-tools-for-stm32.9-2020-q2-update.win32_1.5.0.202011040924/tools/bin/../lib/gcc/arm-none-eabi/9.3.1/../../../../arm-none-eabi/lib/thumb/v7e-m/nofp\libnosys.a
END GROUP
START GROUP
LOAD c:/st/stm32cubeide_1.6.1/stm32cubeide/plugins/com.st.stm32cube.ide.mcu.externaltools.gnu-tools-for-stm32.9-2020-q2-update.win32_1.5.0.202011040924/tools/bin/../lib/gcc/arm-none-eabi/9.3.1/thumb/v7e-m/nofp\libgcc.a
LOAD c:/st/stm32cubeide_1.6.1/stm32cubeide/plugins/com.st.stm32cube.ide.mcu.externaltools.gnu-tools-for-stm32.9-2020-q2-update.win32_1.5.0.202011040924/tools/bin/../lib/gcc/arm-none-eabi/9.3.1/../../../../arm-none-eabi/lib/thumb/v7e-m/nofp\libc_nano.a
LOAD c:/st/stm32cubeide_1.6.1/stm32cubeide/plugins/com.st.stm32cube.ide.mcu.externaltools.gnu-tools-for-stm32.9-2020-q2-update.win32_1.5.0.202011040924/tools/bin/../lib/gcc/arm-none-eabi/9.3.1/../../../../arm-none-eabi/lib/thumb/v7e-m/nofp\libnosys.a
END GROUP
LOAD c:/st/stm32cubeide_1.6.1/stm32cubeide/plugins/com.st.stm32cube.ide.mcu.externaltools.gnu-tools-for-stm32.9-2020-q2-update.win32_1.5.0.202011040924/tools/bin/../lib/gcc/arm-none-eabi/9.3.1/thumb/v7e-m/nofp/crtend.o
LOAD c:/st/stm32cubeide_1.6.1/stm32cubeide/plugins/com.st.stm32cube.ide.mcu.externaltools.gnu-tools-for-stm32.9-2020-q2-update.win32_1.5.0.202011040924/tools/bin/../lib/gcc/arm-none-eabi/9.3.1/thumb/v7e-m/nofp/crtn.o
                0x0000000020020000                _estack = (ORIGIN (RAM) + LENGTH (RAM))
                0x0000000000000200                _Min_Heap_Size = 0x200
                0x0000000000000400                _Min_Stack_Size = 0x400

.isr_vector     0x0000000008000000      0x1a8
                0x0000000008000000                . = ALIGN (0x4)
 *(.isr_vector)
 .isr_vector    0x0000000008000000      0x1a8 Startup/startup_stm32f407vgtx.o
                0x0000000008000000                g_pfnVectors
                0x00000000080001a8                . = ALIGN (0x4)

.text           0x00000000080001a8      0x3f8
                0x00000000080001a8                . = ALIGN (0x4)
 *(.text)
 .text          0x00000000080001a8       0x40 c:/st/stm32cubeide_1.6.1/stm32cubeide/plugins/com.st.stm32cube.ide.mcu.externaltools.gnu-tools-for-stm32.9-2020-q2-update.win32_1.5.0.202011040924/tools/bin/../lib/gcc/arm-none-eabi/9.3.1/thumb/v7e-m/nofp/crtbegin.o
 *(.text*)
 .text.__NVIC_EnableIRQ
                0x00000000080001e8       0x38 Src/Ext_Int.o
 .text.ExtI_Init
                0x0000000008000220       0x4c Src/Ext_Int.o
                0x0000000008000220                ExtI_Init
 .text.EXTI0_IRQHandler
                0x000000000800026c       0x28 Src/Ext_Int.o
                0x000000000800026c                EXTI0_IRQHandler
 .text.Switch_Init
                0x0000000008000294       0x50 Src/Switch_Int.o
                0x0000000008000294                Switch_Init
 .text.DelayMs  0x00000000080002e4       0x50 Src/led.o
 .text.LedInit  0x0000000008000334       0x5c Src/led.o
                0x0000000008000334                LedInit
 .text.LedON    0x0000000008000390       0x2c Src/led.o
                0x0000000008000390                LedON
 .text.LedOFF   0x00000000080003bc       0x2c Src/led.o
                0x00000000080003bc                LedOFF
 .text.LedBlink
                0x00000000080003e8       0x2a Src/led.o
                0x00000000080003e8                LedBlink
 *fill*         0x0000000008000412        0x2 
 .text.main     0x0000000008000414       0x6c Src/main.o
                0x0000000008000414                main
 .text.SystemInit
                0x0000000008000480        0xc Src/system_stm32f4xx.o
                0x0000000008000480                SystemInit
 .text.DWT_Init
                0x000000000800048c       0x60 Src/system_stm32f4xx.o
                0x000000000800048c                DWT_Init
 .text.Reset_Handler
                0x00000000080004ec       0x50 Startup/startup_stm32f407vgtx.o
                0x00000000080004ec                Reset_Handler
 .text.Default_Handler
                0x000000000800053c        0x2 Startup/startup_stm32f407vgtx.o
                0x000000000800053c                RTC_Alarm_IRQHandler
                0x000000000800053c                HASH_RNG_IRQHandler
                0x000000000800053c                EXTI2_IRQHandler
                0x000000000800053c                TIM8_CC_IRQHandler
                0x000000000800053c                DebugMon_Handler
                0x000000000800053c                TIM1_CC_IRQHandler
                0x000000000800053c                DMA2_Stream5_IRQHandler
                0x000000000800053c                HardFault_Handler
                0x000000000800053c                DMA1_Stream5_IRQHandler
                0x000000000800053c                SysTick_Handler
                0x000000000800053c                PVD_IRQHandler
                0x000000000800053c                SDIO_IRQHandler
                0x000000000800053c                TAMP_STAMP_IRQHandler
                0x000000000800053c                PendSV_Handler
                0x000000000800053c                NMI_Handler
                0x000000000800053c                CAN2_RX1_IRQHandler
                0x000000000800053c                EXTI3_IRQHandler
                0x000000000800053c                TIM8_TRG_COM_TIM14_IRQHandler
                0x000000000800053c                TIM1_UP_TIM10_IRQHandler
                0x000000000800053c                TIM8_UP_TIM13_IRQHandler
                0x000000000800053c                I2C3_ER_IRQHandler
                0x000000000800053c                LCD_TFT_IRQHandler
                0x000000000800053c                I2C2_EV_IRQHandler
                0x000000000800053c                DMA1_Stream2_IRQHandler
                0x000000000800053c                CAN1_RX0_IRQHandler
                0x000000000800053c                FPU_IRQHandler
                0x000000000800053c                OTG_HS_WKUP_IRQHandler
                0x000000000800053c                UsageFault_Handler
                0x000000000800053c                CAN2_SCE_IRQHandler
                0x000000000800053c                DMA2_Stream2_IRQHandler
                0x000000000800053c                SPI1_IRQHandler
                0x000000000800053c                TIM6_DAC_IRQHandler
                0x000000000800053c                TIM1_BRK_TIM9_IRQHandler
                0x000000000800053c                DCMI_IRQHandler
                0x000000000800053c                CAN2_RX0_IRQHandler
                0x000000000800053c                DMA2_Stream3_IRQHandler
                0x000000000800053c                USART6_IRQHandler
                0x000000000800053c                USART3_IRQHandler
                0x000000000800053c                CRYP_IRQHandler
                0x000000000800053c                CAN1_RX1_IRQHandler
                0x000000000800053c                UART5_IRQHandler
                0x000000000800053c                DMA2_Stream0_IRQHandler
                0x000000000800053c                TIM4_IRQHandler
                0x000000000800053c                I2C1_EV_IRQHandler
                0x000000000800053c                DMA1_Stream6_IRQHandler
                0x000000000800053c                DMA1_Stream1_IRQHandler
                0x000000000800053c                UART4_IRQHandler
                0x000000000800053c                LCD_TFT_1_IRQHandler
                0x000000000800053c                TIM3_IRQHandler
                0x000000000800053c                RCC_IRQHandler
                0x000000000800053c                TIM8_BRK_TIM12_IRQHandler
                0x000000000800053c                Default_Handler
                0x000000000800053c                EXTI15_10_IRQHandler
                0x000000000800053c                ADC_IRQHandler
                0x000000000800053c                DMA1_Stream7_IRQHandler
                0x000000000800053c                TIM7_IRQHandler
                0x000000000800053c                CAN2_TX_IRQHandler
                0x000000000800053c                TIM5_IRQHandler
                0x000000000800053c                DMA2_Stream7_IRQHandler
                0x000000000800053c                I2C3_EV_IRQHandler
                0x000000000800053c                EXTI9_5_IRQHandler
                0x000000000800053c                RTC_WKUP_IRQHandler
                0x000000000800053c                ETH_WKUP_IRQHandler
                0x000000000800053c                SPI2_IRQHandler
                0x000000000800053c                OTG_HS_EP1_IN_IRQHandler
                0x000000000800053c                MemManage_Handler
                0x000000000800053c                DMA1_Stream0_IRQHandler
                0x000000000800053c                CAN1_TX_IRQHandler
                0x000000000800053c                SVC_Handler
                0x000000000800053c                EXTI4_IRQHandler
                0x000000000800053c                FSMC_IRQHandler
                0x000000000800053c                ETH_IRQHandler
                0x000000000800053c                OTG_HS_EP1_OUT_IRQHandler
                0x000000000800053c                WWDG_IRQHandler
                0x000000000800053c                TIM2_IRQHandler
                0x000000000800053c                OTG_FS_WKUP_IRQHandler
                0x000000000800053c                TIM1_TRG_COM_TIM11_IRQHandler
                0x000000000800053c                OTG_HS_IRQHandler
                0x000000000800053c                EXTI1_IRQHandler
                0x000000000800053c                USART2_IRQHandler
                0x000000000800053c                I2C2_ER_IRQHandler
                0x000000000800053c                DMA2_Stream1_IRQHandler
                0x000000000800053c                CAN1_SCE_IRQHandler
                0x000000000800053c                DMA2_Stream4_IRQHandler
                0x000000000800053c                BusFault_Handler
                0x000000000800053c                USART1_IRQHandler
                0x000000000800053c                OTG_FS_IRQHandler
                0x000000000800053c                SPI3_IRQHandler
                0x000000000800053c                DMA1_Stream4_IRQHandler
                0x000000000800053c                I2C1_ER_IRQHandler
                0x000000000800053c                DMA2_Stream6_IRQHandler
                0x000000000800053c                DMA1_Stream3_IRQHandler
 *fill*         0x000000000800053e        0x2 
 .text.__libc_init_array
                0x0000000008000540       0x48 c:/st/stm32cubeide_1.6.1/stm32cubeide/plugins/com.st.stm32cube.ide.mcu.externaltools.gnu-tools-for-stm32.9-2020-q2-update.win32_1.5.0.202011040924/tools/bin/../lib/gcc/arm-none-eabi/9.3.1/../../../../arm-none-eabi/lib/thumb/v7e-m/nofp\libc_nano.a(lib_a-init.o)
                0x0000000008000540                __libc_init_array
 *(.glue_7)
 .glue_7        0x0000000008000588        0x0 linker stubs
 *(.glue_7t)
 .glue_7t       0x0000000008000588        0x0 linker stubs
 *(.eh_frame)
 .eh_frame      0x0000000008000588        0x0 c:/st/stm32cubeide_1.6.1/stm32cubeide/plugins/com.st.stm32cube.ide.mcu.externaltools.gnu-tools-for-stm32.9-2020-q2-update.win32_1.5.0.202011040924/tools/bin/../lib/gcc/arm-none-eabi/9.3.1/thumb/v7e-m/nofp/crtbegin.o
 *(.init)
 .init          0x0000000008000588        0x4 c:/st/stm32cubeide_1.6.1/stm32cubeide/plugins/com.st.stm32cube.ide.mcu.externaltools.gnu-tools-for-stm32.9-2020-q2-update.win32_1.5.0.202011040924/tools/bin/../lib/gcc/arm-none-eabi/9.3.1/thumb/v7e-m/nofp/crti.o
                0x0000000008000588                _init
 .init          0x000000000800058c        0x8 c:/st/stm32cubeide_1.6.1/stm32cubeide/plugins/com.st.stm32cube.ide.mcu.externaltools.gnu-tools-for-stm32.9-2020-q2-update.win32_1.5.0.202011040924/tools/bin/../lib/gcc/arm-none-eabi/9.3.1/thumb/v7e-m/nofp/crtn.o
 *(.fini)
 .fini          0x0000000008000594        0x4 c:/st/stm32cubeide_1.6.1/stm32cubeide/plugins/com.st.stm32cube.ide.mcu.externaltools.gnu-tools-for-stm32.9-2020-q2-update.win32_1.5.0.202011040924/tools/bin/../lib/gcc/arm-none-eabi/9.3.1/thumb/v7e-m/nofp/crti.o
                0x0000000008000594                _fini
 .fini          0x0000000008000598        0x8 c:/st/stm32cubeide_1.6.1/stm32cubeide/plugins/com.st.stm32cube.ide.mcu.externaltools.gnu-tools-for-stm32.9-2020-q2-update.win32_1.5.0.202011040924/tools/bin/../lib/gcc/arm-none-eabi/9.3.1/thumb/v7e-m/nofp/crtn.o
                0x00000000080005a0                . = ALIGN (0x4)
                0x00000000080005a0                _etext = .

.vfp11_veneer   0x00000000080005a0        0x0
 .vfp11_veneer  0x00000000080005a0        0x0 linker stubs

.v4_bx          0x00000000080005a0        0x0
 .v4_bx         0x00000000080005a0        0x0 linker stubs

.iplt           0x00000000080005a0        0x0
 .iplt          0x00000000080005a0        0x0 c:/st/stm32cubeide_1.6.1/stm32cubeide/plugins/com.st.stm32cube.ide.mcu.externaltools.gnu-tools-for-stm32.9-2020-q2-update.win32_1.5.0.202011040924/tools/bin/../lib/gcc/arm-none-eabi/9.3.1/thumb/v7e-m/nofp/crtbegin.o

.rodata         0x00000000080005a0        0xc
                0x00000000080005a0                . = ALIGN (0x4)
 *(.rodata)
 .rodata        0x00000000080005a0        0xc Src/main.o
 *(.rodata*)
                0x00000000080005ac                . = ALIGN (0x4)

.rel.dyn        0x00000000080005ac        0x0
 .rel.iplt      0x00000000080005ac        0x0 c:/st/stm32cubeide_1.6.1/stm32cubeide/plugins/com.st.stm32cube.ide.mcu.externaltools.gnu-tools-for-stm32.9-2020-q2-update.win32_1.5.0.202011040924/tools/bin/../lib/gcc/arm-none-eabi/9.3.1/thumb/v7e-m/nofp/crtbegin.o

.ARM.extab      0x00000000080005ac        0x0
                0x00000000080005ac                . = ALIGN (0x4)
 *(.ARM.extab* .gnu.linkonce.armextab.*)
                0x00000000080005ac                . = ALIGN (0x4)

.ARM            0x00000000080005ac        0x0
                0x00000000080005ac                . = ALIGN (0x4)
                0x00000000080005ac                __exidx_start = .
 *(.ARM.exidx*)
                0x00000000080005ac                __exidx_end = .
                0x00000000080005ac                . = ALIGN (0x4)

.preinit_array  0x00000000080005ac        0x0
                0x00000000080005ac                . = ALIGN (0x4)
                0x00000000080005ac                PROVIDE (__preinit_array_start = .)
 *(.preinit_array*)
                0x00000000080005ac                PROVIDE (__preinit_array_end = .)
                0x00000000080005ac                . = ALIGN (0x4)

.init_array     0x00000000080005ac        0x4
                0x00000000080005ac                . = ALIGN (0x4)
                0x00000000080005ac                PROVIDE (__init_array_start = .)
 *(SORT_BY_NAME(.init_array.*))
 *(.init_array*)
 .init_array    0x00000000080005ac        0x4 c:/st/stm32cubeide_1.6.1/stm32cubeide/plugins/com.st.stm32cube.ide.mcu.externaltools.gnu-tools-for-stm32.9-2020-q2-update.win32_1.5.0.202011040924/tools/bin/../lib/gcc/arm-none-eabi/9.3.1/thumb/v7e-m/nofp/crtbegin.o
                0x00000000080005b0                PROVIDE (__init_array_end = .)
                0x00000000080005b0                . = ALIGN (0x4)

.fini_array     0x00000000080005b0        0x4
                0x00000000080005b0                . = ALIGN (0x4)
                [!provide]                        PROVIDE (__fini_array_start = .)
 *(SORT_BY_NAME(.fini_array.*))
 *(.fini_array*)
 .fini_array    0x00000000080005b0        0x4 c:/st/stm32cubeide_1.6.1/stm32cubeide/plugins/com.st.stm32cube.ide.mcu.externaltools.gnu-tools-for-stm32.9-2020-q2-update.win32_1.5.0.202011040924/tools/bin/../lib/gcc/arm-none-eabi/9.3.1/thumb/v7e-m/nofp/crtbegin.o
                [!provide]                        PROVIDE (__fini_array_end = .)
                0x00000000080005b4                . = ALIGN (0x4)
                0x00000000080005b4                _sidata = LOADADDR (.data)

.data           0x0000000020000000        0x4 load address 0x00000000080005b4
                0x0000000020000000                . = ALIGN (0x4)
                0x0000000020000000                _sdata = .
 *(.data)
 *(.data*)
 .data.SystemCoreClock
                0x0000000020000000        0x4 Src/system_stm32f4xx.o
                0x0000000020000000                SystemCoreClock
 *(.RamFunc)
 *(.RamFunc*)
                0x0000000020000004                . = ALIGN (0x4)
                0x0000000020000004                _edata = .

.igot.plt       0x0000000020000004        0x0 load address 0x00000000080005b8
 .igot.plt      0x0000000020000004        0x0 c:/st/stm32cubeide_1.6.1/stm32cubeide/plugins/com.st.stm32cube.ide.mcu.externaltools.gnu-tools-for-stm32.9-2020-q2-update.win32_1.5.0.202011040924/tools/bin/../lib/gcc/arm-none-eabi/9.3.1/thumb/v7e-m/nofp/crtbegin.o
                0x0000000020000004                . = ALIGN (0x4)

.bss            0x0000000020000004       0x20 load address 0x00000000080005b8
                0x0000000020000004                _sbss = .
                0x0000000020000004                __bss_start__ = _sbss
 *(.bss)
 .bss           0x0000000020000004       0x1c c:/st/stm32cubeide_1.6.1/stm32cubeide/plugins/com.st.stm32cube.ide.mcu.externaltools.gnu-tools-for-stm32.9-2020-q2-update.win32_1.5.0.202011040924/tools/bin/../lib/gcc/arm-none-eabi/9.3.1/thumb/v7e-m/nofp/crtbegin.o
 *(.bss*)
 .bss.EXTI0_Flag
                0x0000000020000020        0x4 Src/main.o
                0x0000000020000020                EXTI0_Flag
 *(COMMON)
                0x0000000020000024                . = ALIGN (0x4)
                0x0000000020000024                _ebss = .
                0x0000000020000024                __bss_end__ = _ebss

._user_heap_stack
                0x0000000020000024      0x604 load address 0x00000000080005b8
                0x0000000020000028                . = ALIGN (0x8)
 *fill*         0x0000000020000024        0x4 
                [!provide]                        PROVIDE (end = .)
                0x0000000020000028                PROVIDE (_end = .)
                0x0000000020000228                . = (. + _Min_Heap_Size)
 *fill*         0x0000000020000028      0x200 
                0x0000000020000628                . = (. + _Min_Stack_Size)
 *fill*         0x0000000020000228      0x400 
                0x0000000020000628                . = ALIGN (0x8)

/DISCARD/
 libc.a(*)
 libm.a(*)
 libgcc.a(*)

.ARM.attributes
                0x0000000000000000       0x2a
 *(.ARM.attributes)
 .ARM.attributes
                0x0000000000000000       0x1e c:/st/stm32cubeide_1.6.1/stm32cubeide/plugins/com.st.stm32cube.ide.mcu.externaltools.gnu-tools-for-stm32.9-2020-q2-update.win32_1.5.0.202011040924/tools/bin/../lib/gcc/arm-none-eabi/9.3.1/thumb/v7e-m/nofp/crti.o
 .ARM.attributes
                0x000000000000001e       0x2e c:/st/stm32cubeide_1.6.1/stm32cubeide/plugins/com.st.stm32cube.ide.mcu.externaltools.gnu-tools-for-stm32.9-2020-q2-update.win32_1.5.0.202011040924/tools/bin/../lib/gcc/arm-none-eabi/9.3.1/thumb/v7e-m/nofp/crtbegin.o
 .ARM.attributes
                0x000000000000004c       0x2e Src/Ext_Int.o
 .ARM.attributes
                0x000000000000007a       0x2e Src/Switch_Int.o
 .ARM.attributes
                0x00000000000000a8       0x2e Src/led.o
 .ARM.attributes
                0x00000000000000d6       0x2e Src/main.o
 .ARM.attributes
                0x0000000000000104       0x2e Src/system_stm32f4xx.o
 .ARM.attributes
                0x0000000000000132       0x21 Startup/startup_stm32f407vgtx.o
 .ARM.attributes
                0x0000000000000153       0x2e c:/st/stm32cubeide_1.6.1/stm32cubeide/plugins/com.st.stm32cube.ide.mcu.externaltools.gnu-tools-for-stm32.9-2020-q2-update.win32_1.5.0.202011040924/tools/bin/../lib/gcc/arm-none-eabi/9.3.1/../../../../arm-none-eabi/lib/thumb/v7e-m/nofp\libc_nano.a(lib_a-init.o)
 .ARM.attributes
                0x0000000000000181       0x1e c:/st/stm32cubeide_1.6.1/stm32cubeide/plugins/com.st.stm32cube.ide.mcu.externaltools.gnu-tools-for-stm32.9-2020-q2-update.win32_1.5.0.202011040924/tools/bin/../lib/gcc/arm-none-eabi/9.3.1/thumb/v7e-m/nofp/crtn.o
OUTPUT(1_EXT_Interupt.elf elf32-littlearm)
LOAD linker stubs
LOAD c:/st/stm32cubeide_1.6.1/stm32cubeide/plugins/com.st.stm32cube.ide.mcu.externaltools.gnu-tools-for-stm32.9-2020-q2-update.win32_1.5.0.202011040924/tools/bin/../lib/gcc/arm-none-eabi/9.3.1/../../../../arm-none-eabi/lib/thumb/v7e-m/nofp\libc.a
LOAD c:/st/stm32cubeide_1.6.1/stm32cubeide/plugins/com.st.stm32cube.ide.mcu.externaltools.gnu-tools-for-stm32.9-2020-q2-update.win32_1.5.0.202011040924/tools/bin/../lib/gcc/arm-none-eabi/9.3.1/../../../../arm-none-eabi/lib/thumb/v7e-m/nofp\libm.a
LOAD c:/st/stm32cubeide_1.6.1/stm32cubeide/plugins/com.st.stm32cube.ide.mcu.externaltools.gnu-tools-for-stm32.9-2020-q2-update.win32_1.5.0.202011040924/tools/bin/../lib/gcc/arm-none-eabi/9.3.1/thumb/v7e-m/nofp\libgcc.a

.debug_info     0x0000000000000000     0x3b04
 .debug_info    0x0000000000000000     0x1030 Src/Ext_Int.o
 .debug_info    0x0000000000001030      0xc75 Src/Switch_Int.o
 .debug_info    0x0000000000001ca5      0xe8e Src/led.o
 .debug_info    0x0000000000002b33      0xa28 Src/main.o
 .debug_info    0x000000000000355b      0x587 Src/system_stm32f4xx.o
 .debug_info    0x0000000000003ae2       0x22 Startup/startup_stm32f407vgtx.o

.debug_abbrev   0x0000000000000000      0x998
 .debug_abbrev  0x0000000000000000      0x24c Src/Ext_Int.o
 .debug_abbrev  0x000000000000024c      0x1c4 Src/Switch_Int.o
 .debug_abbrev  0x0000000000000410      0x22d Src/led.o
 .debug_abbrev  0x000000000000063d      0x1d7 Src/main.o
 .debug_abbrev  0x0000000000000814      0x172 Src/system_stm32f4xx.o
 .debug_abbrev  0x0000000000000986       0x12 Startup/startup_stm32f407vgtx.o

.debug_aranges  0x0000000000000000      0x118
 .debug_aranges
                0x0000000000000000       0x30 Src/Ext_Int.o
 .debug_aranges
                0x0000000000000030       0x28 Src/Switch_Int.o
 .debug_aranges
                0x0000000000000058       0x40 Src/led.o
 .debug_aranges
                0x0000000000000098       0x20 Src/main.o
 .debug_aranges
                0x00000000000000b8       0x38 Src/system_stm32f4xx.o
 .debug_aranges
                0x00000000000000f0       0x28 Startup/startup_stm32f407vgtx.o

.debug_ranges   0x0000000000000000       0xc0
 .debug_ranges  0x0000000000000000       0x20 Src/Ext_Int.o
 .debug_ranges  0x0000000000000020       0x18 Src/Switch_Int.o
 .debug_ranges  0x0000000000000038       0x30 Src/led.o
 .debug_ranges  0x0000000000000068       0x10 Src/main.o
 .debug_ranges  0x0000000000000078       0x28 Src/system_stm32f4xx.o
 .debug_ranges  0x00000000000000a0       0x20 Startup/startup_stm32f407vgtx.o

.debug_macro    0x0000000000000000    0x197c5
 .debug_macro   0x0000000000000000      0x25b Src/Ext_Int.o
 .debug_macro   0x000000000000025b      0xaa8 Src/Ext_Int.o
 .debug_macro   0x0000000000000d03       0x22 Src/Ext_Int.o
 .debug_macro   0x0000000000000d25       0x8e Src/Ext_Int.o
 .debug_macro   0x0000000000000db3       0x51 Src/Ext_Int.o
 .debug_macro   0x0000000000000e04      0x103 Src/Ext_Int.o
 .debug_macro   0x0000000000000f07       0x6a Src/Ext_Int.o
 .debug_macro   0x0000000000000f71      0x1df Src/Ext_Int.o
 .debug_macro   0x0000000000001150       0x52 Src/Ext_Int.o
 .debug_macro   0x00000000000011a2       0x18 Src/Ext_Int.o
 .debug_macro   0x00000000000011ba       0x3c Src/Ext_Int.o
 .debug_macro   0x00000000000011f6       0x34 Src/Ext_Int.o
 .debug_macro   0x000000000000122a       0x16 Src/Ext_Int.o
 .debug_macro   0x0000000000001240       0x97 Src/Ext_Int.o
 .debug_macro   0x00000000000012d7      0x339 Src/Ext_Int.o
 .debug_macro   0x0000000000001610       0xfd Src/Ext_Int.o
 .debug_macro   0x000000000000170d       0x10 Src/Ext_Int.o
 .debug_macro   0x000000000000171d       0x16 Src/Ext_Int.o
 .debug_macro   0x0000000000001733       0x43 Src/Ext_Int.o
 .debug_macro   0x0000000000001776       0x34 Src/Ext_Int.o
 .debug_macro   0x00000000000017aa       0x10 Src/Ext_Int.o
 .debug_macro   0x00000000000017ba       0x58 Src/Ext_Int.o
 .debug_macro   0x0000000000001812       0x71 Src/Ext_Int.o
 .debug_macro   0x0000000000001883       0x1c Src/Ext_Int.o
 .debug_macro   0x000000000000189f      0x12a Src/Ext_Int.o
 .debug_macro   0x00000000000019c9       0x10 Src/Ext_Int.o
 .debug_macro   0x00000000000019d9       0x1c Src/Ext_Int.o
 .debug_macro   0x00000000000019f5       0x52 Src/Ext_Int.o
 .debug_macro   0x0000000000001a47       0x22 Src/Ext_Int.o
 .debug_macro   0x0000000000001a69       0x10 Src/Ext_Int.o
 .debug_macro   0x0000000000001a79       0x40 Src/Ext_Int.o
 .debug_macro   0x0000000000001ab9       0xd5 Src/Ext_Int.o
 .debug_macro   0x0000000000001b8e       0x1c Src/Ext_Int.o
 .debug_macro   0x0000000000001baa       0x3d Src/Ext_Int.o
 .debug_macro   0x0000000000001be7       0x16 Src/Ext_Int.o
 .debug_macro   0x0000000000001bfd      0x145 Src/Ext_Int.o
 .debug_macro   0x0000000000001d42       0x2f Src/Ext_Int.o
 .debug_macro   0x0000000000001d71       0x1c Src/Ext_Int.o
 .debug_macro   0x0000000000001d8d       0x22 Src/Ext_Int.o
 .debug_macro   0x0000000000001daf       0xd9 Src/Ext_Int.o
 .debug_macro   0x0000000000001e88     0x102d Src/Ext_Int.o
 .debug_macro   0x0000000000002eb5      0x11f Src/Ext_Int.o
 .debug_macro   0x0000000000002fd4    0x15e3c Src/Ext_Int.o
 .debug_macro   0x0000000000018e10       0x2e Src/Ext_Int.o
 .debug_macro   0x0000000000018e3e       0x4a Src/Ext_Int.o
 .debug_macro   0x0000000000018e88       0x2e Src/Ext_Int.o
 .debug_macro   0x0000000000018eb6       0x1c Src/Ext_Int.o
 .debug_macro   0x0000000000018ed2       0x22 Src/Ext_Int.o
 .debug_macro   0x0000000000018ef4      0x25b Src/Switch_Int.o
 .debug_macro   0x000000000001914f      0x25b Src/led.o
 .debug_macro   0x00000000000193aa      0x25b Src/main.o
 .debug_macro   0x0000000000019605       0xe1 Src/system_stm32f4xx.o
 .debug_macro   0x00000000000196e6       0xdf Src/system_stm32f4xx.o

.debug_line     0x0000000000000000     0x1fb1
 .debug_line    0x0000000000000000      0x68a Src/Ext_Int.o
 .debug_line    0x000000000000068a      0x66b Src/Switch_Int.o
 .debug_line    0x0000000000000cf5      0x6e3 Src/led.o
 .debug_line    0x00000000000013d8      0x65e Src/main.o
 .debug_line    0x0000000000001a36      0x4f7 Src/system_stm32f4xx.o
 .debug_line    0x0000000000001f2d       0x84 Startup/startup_stm32f407vgtx.o

.debug_str      0x0000000000000000    0x8c6be
 .debug_str     0x0000000000000000    0x8c446 Src/Ext_Int.o
                                      0x8c6de (size before relaxing)
 .debug_str     0x000000000008c446       0x61 Src/Switch_Int.o
                                      0x8c18b (size before relaxing)
 .debug_str     0x000000000008c4a7       0xdc Src/led.o
                                      0x8c246 (size before relaxing)
 .debug_str     0x000000000008c583       0x18 Src/main.o
                                      0x8c046 (size before relaxing)
 .debug_str     0x000000000008c59b       0xf2 Src/system_stm32f4xx.o
                                      0x87d88 (size before relaxing)
 .debug_str     0x000000000008c68d       0x31 Startup/startup_stm32f407vgtx.o
                                         0x61 (size before relaxing)

.comment        0x0000000000000000       0x53
 .comment       0x0000000000000000       0x53 Src/Ext_Int.o
                                         0x54 (size before relaxing)
 .comment       0x0000000000000053       0x54 Src/Switch_Int.o
 .comment       0x0000000000000053       0x54 Src/led.o
 .comment       0x0000000000000053       0x54 Src/main.o
 .comment       0x0000000000000053       0x54 Src/system_stm32f4xx.o

.debug_frame    0x0000000000000000      0x26c
 .debug_frame   0x0000000000000000       0x74 Src/Ext_Int.o
 .debug_frame   0x0000000000000074       0x4c Src/Switch_Int.o
 .debug_frame   0x00000000000000c0       0xcc Src/led.o
 .debug_frame   0x000000000000018c       0x30 Src/main.o
 .debug_frame   0x00000000000001bc       0x84 Src/system_stm32f4xx.o
 .debug_frame   0x0000000000000240       0x2c c:/st/stm32cubeide_1.6.1/stm32cubeide/plugins/com.st.stm32cube.ide.mcu.externaltools.gnu-tools-for-stm32.9-2020-q2-update.win32_1.5.0.202011040924/tools/bin/../lib/gcc/arm-none-eabi/9.3.1/../../../../arm-none-eabi/lib/thumb/v7e-m/nofp\libc_nano.a(lib_a-init.o)
